:1000000010C018C016C015C014C013C012C011C053
:1000100010C00FC00EC00DC00CC00BC00AC009C07C
:1000200008C011241FBECFE5D2E0DEBFCDBF34D063
:1000300045C0E6CF1F920F920FB60F9211242F9357
:100040004F935F938F939F93EF93FF9322B7222356
:10005000B9F012BEC69A44E650E0C79888EB9BE020
:10006000FA013197F1F70197D9F7C79A88EB9BE02E
:10007000FA013197F1F70197D9F7215071F7C69836
:10008000FF91EF919F918F915F914F912F910F90E1
:100090000FBE0F901F90189580EC87BB81E888BB3E
:1000A00011BA84E082BB86E083BF12BE80E48BBFBE
:1000B00080E285BF789488950000FDCFF894FFCF4B
:00000001FF
