:1000000010C022C021C020C01FC01EC01EC01CC006
:100010001BC01AC019C018C017C016C015C014C024
:1000200013C011241FBECFE5D2E0DEBFCDBF10E06C
:10003000A0E6B0E0E2EBF0E002C005900D92A2363F
:10004000B107D9F722D033C0DBCF1F920F920FB682
:100050000F9211248F939F9388EF98EF9DBD8CBDD5
:1000600080916000880F8160809360008F3F19F459
:100070008EEF809360008091600085BB9F918F918F
:100080000F900FBE0F901F9018958FEF84BB80913B
:10009000600085BB1FBC85E08EBD88EF98EF9DBDDD
:1000A0008CBD18BE80E889BF1BBE7894FFCFF89442
:0200B000FFCF80
:0200B200FE004E
:00000001FF
