:1000000010C017C016C015C014C013C012C011C054
:1000100010C00FC00EC00DC00CC00BC00AC009C07C
:1000200008C011241FBECFE5D2E0DEBFCDBF08D08F
:1000300035C0E6CF91980000919A000091980895FC
:10004000FF920F931F9384E58DBF84E08EBF8FEFE7
:1000500081BB939A949A929A9298909A0000000089
:100060000000909884BB83E085BBE4DF82E885BB19
:1000700094980000949A0FEFFF24F39404BBF5BA10
:10008000D9DF14BA9398000013B3939A04BB15BA3E
:10009000D1DF15BB94980000949AF0CFF894FFCF6D
:00000001FF
